:020000040800F2
:1000000090070020A9010008AB2C000883260008F7
:10001000A92C00088F130008EF2D00080000000035
:10002000000000000000000000000000AF2C0008ED
:100030009113000800000000AD2C0008B12C00084E
:10004000C3010008C3010008C3010008C301000880
:10005000C3010008C3010008C3010008931300088E
:1000600099130008C3010008C3010008C301000878
:10007000C3010008C3010008C3010008C301000850
:10008000C3010008C3010008C3010008C301000840
:10009000C3010008C3010008C3010008C301000830
:1000A000C30100080D2D0008C3010008C3010008AA
:1000B000C3010008C3010008C3010008C301000810
:1000C000C3010008C3010008C3010008C301000800
:1000D000C3010008C3010008C3010008C3010008F0
:1000E000C3010008C3010008C301000800F002F8C2
:1000F00000F04AF80AA090E8000C82448344AAF178
:100100000107DA4501D100F03FF8AFF2090EBAE875
:100110000F0013F0010F18BFFB1A43F0010318473B
:10012000403E0000603E0000103A24BF78C878C10D
:10013000FAD8520724BF30C830C144BF04680C60ED
:10014000704700000023002400250026103A28BF35
:1001500078C1FBD8520728BF30C148BF0B60704739
:10016000662903F02486642900F05280002070473D
:100170001FB500F0CBFB04000020002103F02AFA99
:10018000E0601FBD10B510BD00F0C4FC1146FFF7C4
:10019000EFFF02F0B5FF00F0E2FC03B4FFF7F2FF5F
:1001A00003BC00F025FD00000948804709480047CE
:1001B000FEE7FEE7FEE7FEE7FEE7FEE7FEE7FEE717
:1001C000FEE7FEE704480549054A064B7047000074
:1001D000092D0008ED000008900100209007002084
:1001E00090030020900300200FB41CB5074B06AA13
:1001F0007B4469460090059800F06FFB002069463B
:1002000000F07EFB1CBC5DF814FB00000D07000035
:100210002DE9F0410646002410687529314616A5DF
:1002200010D0AFF30080002802DA404213A507E0A7
:1002300031688A0701D512A502E0490704D511A546
:10024000012401E0AFF3008000210A2206F1240717
:1002500009E0B0FBF2FCB0FBF2F302FB1C00303013
:1002600078541846491C0028F3D123462A463046C4
:10027000BDE8F04100F0C4B8000000002D0000000F
:100280002B000000200000002DE9F0474FF0000A8D
:1002900089460446C0F820A02046E1688847002827
:1002A00076D0252806D0D4E901219047206A401C49
:1002B0002062F1E7E168204600258847C4F81CA0C9
:1002C00006460027C4F818A02A2E09D0304602F0AE
:1002D000B3FD38B304EB8708303EC8F8186019E066
:1002E00059F8041B204604EB87029161E1688847B6
:1002F000012F064618D1E069002820DA25F02005F4
:100300001DE0D8F8180000EB800006EB4000303804
:10031000C8F818002046E1688847064602F08CFDC0
:100320000028EED1012F0AD02E2E08D12046E168F8
:1003300088477F1C0646022F45F02005C4DBA069D4
:10034000002803DA404245F00105A061E80701D02A
:1003500025F01005B6B1A6F14100192802D82036C3
:1003600045F400654A463146204625604D46FFF774
:10037000F7FE58B1012806D0ED1D25F0070000F169
:10038000080989E704E005F1040985E730468AE7B2
:10039000206ABDE8F0874FF0000200B5134694468E
:1003A0009646203922BFA0E80C50A0E80C50B1F1CD
:1003B0002001BFF4F7AF090728BFA0E80C5048BFE1
:1003C0000CC05DF804EB890028BF40F8042B08BF7F
:1003D000704748BF20F8022B11F0804F18BF00F87B
:1003E000012B704770477047704710B500F092FAC4
:1003F000006810BD10B5044600F08CFA046010BD12
:100400002DE9F0470D4699469246044600F124082E
:100410000168880604D5E06921F01001216000E040
:100420000120A84201DD471B00E00027A1697A19DD
:1004300002EB0900081AA0612078C00602D4204609
:10044000AFF30080002608E0D4E901211AF8060085
:100450009047206A401C761C20624E45F4DB2078D1
:10046000C0060AD52046AFF3008006E0D4E901219A
:1004700030209047206A401C2062381EA7F10107F7
:10048000F4DC07E0D4E9012118F805009047206A60
:10049000401C2062281EA5F10105F3DC2046AFF3C5
:1004A00000802078000602D50220BDE8F0870120F8
:1004B000FBE770472DE9FF4F0C461E464FF0FF3714
:1004C0008BB0D2E90001DDF860800A908A46C1F362
:1004D0000A5505B93D46002108464FF00000BAF123
:1004E000000F00F4400005DA00EB80004FF44001FB
:1004F00001EA50004FEA9059B9F1010F00DDB94609
:100500000A9850EA4A000ED044F61050A5F2FF3582
:1005100045432F14B8F1000F1ED07542291E1EDD71
:10052000C9F100021CE0B8F1010F4FF0000001D04A
:10053000302103E0F24305E02154401CB042FBDBD4
:1005400030460022002121540B99C1F80880C1E9EE
:1005500000200FB0BDE8F08FBD1B6D1CDEE74A46E2
:1005600000DA694206A800F05FFA06AB93E80700DC
:1005700003AB83E8070050460A9900F040FB8DE882
:100580000700A0F500501F3800900398002D0ADDE9
:1005900042F21F014A460844002303A9039068461B
:1005A00000F0A9FD09E0A0F500504A461F380023DD
:1005B00003A90390684600F0B3FD8DE8070000042E
:1005C000000C03D04FF0FF30410800E01046B8F1B6
:1005D000000F03D00022009215461EE0751E05D4C0
:1005E00000F09CF9303262556D1EF9D5B3460122F8
:1005F000084302D000227F1C04E02078302801D17B
:1006000000227F1E002A099784D01DE0112D07DAF1
:1006100000F084F9303262556D1C50EA0102F5D1C8
:10062000084302D00098C8B10EE00021681E05E022
:10063000235C625C63542254401E491C8142F7DBF8
:10064000AB46A81B401E0990002004F80B000B9835
:10065000099AC0F80880C0E9002B7AE711264FF00C
:10066000000857E72DE9F04F88460446D21D22F0D6
:10067000070191B0D1E90001CDE90A0102F0B8FB10
:1006800002460B98C00F01D02D2007E0206881079B
:1006900001D52B2002E0202101EAC000032A0990A5
:1006A00001D0072A05DB03464146204600F07CF9CD
:1006B0000BE12078800601D5E06900E00620B8F162
:1006C000650F814606D0B8F1660F18D0B8F1670FF4
:1006D00070D131E00020B9F1110F009001DB11233E
:1006E00001E009F101030AAA01A90CA8FFF7E2FE43
:1006F000DDE90C70002609F10105834647E0012081
:100700004B4600904FF000470AAA01A90CA8FFF73A
:10071000D1FEDDE90DB00C995D46002610B909F156
:1007200001000D18B9EB050003D4C0F1FF3609F143
:100730000105A5EB09002BE0B9F1010F01DA4FF03B
:1007400001090020B9F1110F0090484601DD112385
:1007500000E003460AAA01A90CA8FFF7ABFEDDE9F9
:100760000C704D4600268346207800070AD4AB451E
:1007700000DA5D4601A8012D04DD411911F8011CC4
:10078000302907D04F4502DA17F1040F04DA0120AF
:1007900082460FE06D1EEEE7002F02DCED1B3E44AB
:1007A00003E0781CA84200DD7D1CB81B00F1010AA3
:1007B0004FF000472078000703D4AA4501DB4FF033
:1007C000FF3A0021B7F1004F0DF143088DF84310B7
:1007D00024D002202B23002F01DA7F422D230A216F
:1007E000021EA0F1010000DC5FB197FBF1FC97FB5A
:1007F000F1F201FB1C7C17460CF1300C08F801CD1E
:10080000EEE7A8F1010003702188090501D5452113
:1008100000E06521A0F1010800F8011C09980FA96A
:10082000A1EB0807FF1D00B10120411901EBEA709F
:10083000A1693844081A401EA0612078C00602D47D
:100840002046AFF30080099828B1D4E901219047F0
:10085000206A401C20622078C00622D52046AFF3D3
:1008600000801EE0002E04DBB34502DD01A8805DA0
:1008700000E03020D4E901219047206A401C20622A
:10088000761CAAF101005FEA000A0AD100F03EF8E6
:10089000C0680168405CD4E901219047206A401C8F
:1008A0002062281EA5F10105DCDC07E0D4E9012166
:1008B00018F8010B9047206A401C2062381EA7F1EF
:1008C0000107F3DC2046AFF30080032011B041E6BE
:1008D00001694A1C02610878704700B58FB0CDE904
:1008E00001310021059105497944CDE903101146F4
:1008F0006846FFF7C9FC0FB000BD0000E5FFFFFF31
:100900000A6802F8010B0A6070470000004870474F
:100910004C010020004870472C01002030B5B0F198
:100920000A024FEA900E71F100034EEA817EB0EBAD
:100930000E0061EB91014FEA101E4EEA017E10EBB2
:100940000E0041EB11114FEA102E4EEA016E10EB32
:100950000E0041EB11214FEA104E4EEA014E10EB12
:100960000E0041EB1141401841F100014FEAD00067
:1009700040EA41704FEAD10110EB80054FEA810453
:1009800044EA907444EB01046D1944EB0404521BD7
:10099000A3414FF0000348BF0A3200D530BD401CD0
:1009A00041F1000130BD00002DE9F0411F46044631
:1009B00003260168072A01F4006004DB08B116A5CC
:1009C00005E016A503E008B115A500E015A521F086
:1009D00010002060A069C01EA0610FB1401EA06180
:1009E0002046AFF300804FB1D4E90121384690474B
:1009F000206A401C2062C01C206206E0206AFAE7E0
:100A0000D4E9012115F8010B9047761EF8D2204653
:100A1000AFF30080BDE8F0814E414E006E616E0084
:100A2000494E4600696E66002DE9F047814616463C
:100A30008AB0354878440DC88DE80D0032487844B6
:100A4000801C03AC0DC884E80D0041F69B300844BF
:100A5000372190FBF1F290FBF1F5A5F1800501FB48
:100A600012041B3C02D56442012000E00020DFF8A4
:100A700098A080460027FA44AAF1BE0A0EE0E007DB
:100A80000AD03246684607EB470101230AEB810191
:100A900000F046FB8DE8070064107F1C002CEED1AF
:100AA000194F7F44AE3F19E0E80715D007EB04105B
:100AB0000DF1180A90E80E008AE80E00C068F042B6
:100AC00001D1981908903246012306A903A800F025
:100AD00027FB03AB83E807006D10641C002DE3D1F6
:100AE0004FF0010332466946B8F1000F03A802D067
:100AF00000F001FB01E000F013FBC9E90001C9F8B7
:100B000008200AB0BDE8F0871035000000487047A3
:100B10002C0100207546FFF7F9FFAE460500694637
:100B2000534620F00700854618B020B5FFF74AFB72
:100B3000BDE820404FF000064FF000074FF00008DE
:100B40004FF0000B21F00701AC46ACE8C009ACE85F
:100B5000C009ACE8C009ACE8C0098D46704710B5C3
:100B60000446AFF300802046BDE81040FFF715BBF8
:100B70004FF0013C50F8042B51F8043B9A4221D12C
:100B8000A2EB0C03934313EACC1317D150F8042BB8
:100B900051F8043B9A4215D1A2EB0C03934313EA9C
:100BA000CC130BD150F8042B51F8043B9A4209D1D5
:100BB000A2EB0C03934313EACC13DBD04FF00000FD
:100BC000704700BFD01A01BAB1FA81F101F01801E3
:100BD00022FA01F0CB40C1F12001DBB2C0B2C01A51
:100BE0002CFA01F3D11A914311EAC311E6D17047EF
:100BF00001491820ABBEFEE72600020070475FEAFD
:100C0000400C08BF91F0000F4FEA8C234FEAC1223D
:100C100043EA51514FEA1C5018BF00F5F0404FEA2B
:100C2000300018BF41F000415FEA6C5C00F02980A1
:100C3000BCF1FF3F08BF40F080407047130C06BF77
:100C400012044FF0100C4FF0000C130E04BF1202F0
:100C50000CF1080C130F04BF12010CF1040C930FDC
:100C600004BF92000CF1020CD30F04BF52000CF130
:100C7000010C11464FF00002A0F11F00A0EB0C0088
:100C8000704711F0004F08BF704731F000413FF44A
:100C9000D5AF0B0C06BF09044FF0100C4FF0000C41
:100CA0000B0E04BF09020CF1080C0B0F04BF090165
:100CB0000CF1040C8B0F04BF89000CF1020CCB0F5C
:100CC00004BF49000CF1010CCCF12003A0EB0C0097
:100CD00022FA03F302FA0CF241EA030100F10100E7
:100CE000704720F07F4C80EA030023F07F47ACEB95
:100CF000070303F57C5300F0004003F1FF032DE9E7
:100D000080494FEA154B09B44FEA144325EA0B4ECC
:100D100024EA03480FF2042606EB132749083E781D
:100D20005FEA320203FB0667C7F5000707FB06F61A
:100D30004FEA54374FEAD64606F1020607FB066C27
:100D4000CCF1005C4FEA1C472CEA074C07FB06F489
:100D50000CFB06F504EB15464FEA961634BF00204F
:100D60004FF000404FEAD13706FB07FC4FEA1C4C1E
:100D70000CFB0BF7D21B03FB0CF761EB07010CFB21
:100D80000EF7B0EB074072EB17420CFB08F734BFCD
:100D9000A2EB0742B2EB074261EB17414FEA0C446A
:100DA0004FEA910706FB07FC4FEA1C4C0CFB0BF7C4
:100DB000B0EBC74072EB573203FB0CF734BFA2EB2A
:100DC000C742B2EBC74261EB57310CFB0EF7B0EBF9
:100DD000C70072EB57720CFB08F734BFA2EBC702D7
:100DE000B2EBC70261EB5771039F4FEA816141EAA1
:100DF000921104EBCC044FEAD1374FEA826206FB32
:100E000007FC42EA90124FEA80604FEA1C4C0CFB50
:100E10000BF7D21B03FB0CF761EB07010CFB0EF782
:100E2000B0EB074072EB17420CFB08F734BFA2EBA4
:100E30000742B2EB074261EB17414FEA8C554FEA8C
:100E4000910704EB9C2406FB07FC4FEA1C4C0CFBAF
:100E50000BF7B0EBC74072EB573203FB0CF734BF14
:100E6000A2EBC742B2EBC74261EB57310CFB0EF766
:100E7000B0EBC70072EB57720CFB08F734BFA2EB64
:100E8000C702B2EBC70261EB577115EB4C254FEA75
:100E9000816141EA92114FEA82624FEAD13742EA18
:100EA000901206FB07FC44F100044FEA80604FEA11
:100EB0001C4C0CFB0BF7D21B03FB0CF761EB07017F
:100EC0000CFB0EF7B0EB074072EB17420CFB08F778
:100ED00034BFA2EB0742B2EB074261EB174115EBBF
:100EE0001C154FEA813141EA92414FEA823242EACF
:100EF00090424FEA80304FEA0C7644F1000448EA11
:100F000003434EEA0B484FF0000EB2EB080C71EBB6
:100F1000030724BF624639464EEB0E0E4FF0000B1E
:100F20000018524149414BEB0B0BB2EB080C71EB33
:100F300003077BF1000B24BF624639464EEB0E0ED1
:100F40004FF0000B0018524149414BEB0B0BB2EB39
:100F5000080C71EB03077BF1000B24BF6246394696
:100F60004EEB0E0E51EA020718BF46F0010616EBD3
:100F70000E7655F1000254F1000103D5BDE8890158
:100F8000BDE80088BDE88901BDE80048B6195241B6
:100F900041EB0101A3F10103704780807F7E7D7CDE
:100FA0007B7A7978777676757473727171706F6EFB
:100FB0006E6D6C6C6B6A6A696868676666656464A6
:100FC000636362616160605F5F5E5E5D5D5C5C5B30
:100FD0005B5A5A595958585757565655555554549F
:100FE000535352525251515050504F4F4F4E4E4DFD
:100FF0004D4D4C4C4C4B4B4B4A4A4A494949484849
:101000004847474747464646454545444444444388
:1010100043434342424242414141002B9C4630D42B
:1010200077002BD01CB54FEA370703B44FF0100000
:101030004FF01001BAF1000F06D0BCF1000FDCBF79
:1010400040F0080040F008014FF000000FBCBDE880
:1010500010400BF1010BBBF1010F08BF5FEA17074E
:1010600022BF12F1010211F101014FF0004143F1E1
:10107000000300F0004043EA00007047F9D357082E
:10108000D0E746EA064613F1400F4FEA16461FDD49
:1010900013F1200FDFBF16430A46002120335B42C5
:1010A000BED0C3F1200746EA064602FA07F74FEA28
:1010B000164646EA0706C3F1200722FA03F201FAB0
:1010C00007F721FA03F14FF0000342EA0702A7E70E
:1010D00046EA020646EA06464FEA164646EA010690
:1010E000BCBF46EA0646360C4FF000034FF0000244
:1010F0004FF0000194E72DE9804C9A46934670B476
:1011000091E8380007C831EA400C48BF34EA430C84
:1011100003D5FFF7E6FDFFF780FFF0BCBDE8008CCC
:101120002DE9804C9A46934670B491E8380007C880
:1011300010F0804F08BF13F0804F03D100F005F886
:10114000FFF76BFFF0BCBDE8008C20F07F4780EA22
:10115000030023F07F4C07EB0C03A3F57C5300F056
:101160000040A3F1FE0392F0000F00F0B38095F071
:10117000000F00F077802DE901494FEA11404FEA56
:10118000144621EA004800FB06FC24EA064708FB57
:1011900006F607FB08F800FB07F718EB06484CEBD0
:1011A000164C4FEA124B18EB07484FEA15464CEB2A
:1011B000174022EA0B4E0BFB06FC25EA06470EFB06
:1011C00006F607FB0EFE0BFB07F71EEB064E4CEB7D
:1011D000164C4FF000061EEB074E4CEB174B18EB6E
:1011E0000B0840F1000018EB0E0B58EB000840F123
:1011F00000008F1A4FF000013CBFC943661B14BFAB
:10120000B5EB040C00213CBFC943F61B4FEA174461
:101210004EEA8E0E27EA04454FEA1C4704FB07629C
:101220002CEA074C05FB07F70CFB05F604FB0CFC4E
:1012300016EB074642EB174216EB0C4642EB1C42FC
:101240001BEB060658EB0202414146EA9E0601D519
:10125000BDE80189B619524141EB0101A3F1010337
:10126000BDE801894FEA14454FEA114724EA0546D3
:1012700021EA074C05FB07F406FB07F70CFB06F118
:1012800005FB0CFC11EB074144EB17444FEA1247F6
:1012900011EB0C4144EB1C4422EA074C05FB07F21E
:1012A00006FB07F70CFB06F605FB0CFC16EB0746E6
:1012B00042EB174216EB0C4642EB1C456A1854F100
:1012C000000148BF7047B619524141EB0101A3F13B
:1012D0000103704795F0000F37D04FEA11424FEAF3
:1012E000144721EA024624EA074C02FB07F106FBF9
:1012F00007F70CFB06F402FB0CFC14EB074441EB74
:1013000017414FEA154714EB0C4441EB1C4125EA09
:10131000074C02FB07F506FB07F70CFB06F602FB82
:101320000CFC16EB074645EB174516EB0C4645EB58
:101330001C42121951F1000148BF7047B6195241C1
:1013400041EB0101A3F1010370474FEA14454FEA55
:10135000114724EA054621EA074C05FB07F106FB85
:1013600007F70CFB06F24FF0000605FB0CFC12EB36
:10137000074241EB174112EB0C4251EB1C4148BFB5
:101380007047921841EB0101A3F101037047FEE79A
:101390007047022000F028B8042000F025B80000B3
:1013A00070B5044600F02AF90546601C02D00448D6
:1013B0000078044400F022F9401BA042FAD370BD2B
:1013C0001C0000200749022804D0042806D1087810
:1013D00028B101E00120487000200870704701200A
:1013E000FBE7000000000020044910B50A68024233
:1013F00002D00860FFF7E6FF10BD000014040140B2
:101400002DE9F84FDFF8B8910024A9F1040B234629
:101410000F2709F1040AABF1040EC9E00125A5402C
:101420002A40AA427DD1674ED1F804C0ACEB060831
:10143000B44532D014DCBCF1030F3AD009DCBCF166
:10144000000F2AD0BCF1010F1CD0BCF1020F31D12A
:101450001DE0BCF1110F17D0BCF1120F2AD119E019
:10146000B8F5881F19D006DCB8F5803F15D0B8F55F
:10147000801F1FD111E0B8F5001F0ED0B8F5041F72
:1014800018D10AE0CB6815E0CB681B1D12E0CB68D1
:1014900008330FE0CB680C330CE08B682BB1012BC9
:1014A0004FF0080303D0456104E0042302E0056126
:1014B00000E00023FF2A01D8064601E000F10406FF
:1014C0004FEA840501D9A5F12005D6F8008007FA76
:1014D00005FC28EA0C0803FA05F548EA0508C6F8F1
:1014E00000804D68ED0062D5374DAE6946F00106CB
:1014F000AE61AD6924F0030605F001050095334D9A
:1015000006EB050CDCF80850A607360F07FA06F8BC
:1015100025EA0805DFF8B880404503D14FF0000800
:1015200017E044E0DFF8AC80404502D14FF00108FD
:101530000FE0DFF8A480404502D14FF0020808E038
:10154000DFF89880404502D14FF0030801E04FF0EA
:10155000040808FA06F848EA0508CCF808804D683F
:10156000D9F80060ED024D4601D5164300E09643E0
:101570002E604D68DAF80060AD02554601D516437D
:1015800000E096432E604D68DBF80060AD035D46D9
:1015900001D5164300E096432E604D68DEF80060EA
:1015A000ED03754601D5164300E096432E60641C9A
:1015B0000D682A46E5407FF431AFBDE8F88F0000A2
:1015C000080401400000111000100240000001401A
:1015D00000080140000C01400010014000140140CF
:1015E000C26821EA02030A4043EA024101617047EE
:1015F0000AB1016170470904FBE7000001488068F7
:10160000704700001C00002070B5040025D094F83D
:101610003D00002520B984F83C50204600F00EFB28
:10162000242084F83D002068016821F00101016058
:101630002068016841F4004101602068016821F4DC
:101640000041016000F056FC4D4A6168914201D8AA
:101650004C4900E04C49884201D2012070BD4B4901
:101660002368B0FBF1F15E6826F03F060E435E6032
:101670006368934206D94FF4967359434FF47A73D3
:10168000B1FBF3F12368491C1E6A26F03F06314383
:1016900019626168914210D84900401EB0FBF1F216
:1016A000521CC2F30B02042A01D2042022E0B0FB38
:1016B000F1F0401CC0F30B001CE0A268F2B301EB98
:1016C000C10303EB0116431EB3FBF6F35B1C43F4AB
:1016D00080431B0549D092B301EBC10202EB01111B
:1016E000401EB0FBF1F0401CC0F30B0040F4804002
:1016F00040F400402168CA694CF6FF739A431043D6
:10170000C861D4E9071001432068026822F0C002D2
:1017100011430160D4E9030101432068826848F263
:10172000FF339A4311438160D4E9050108432168DE
:10173000CA6822F0FF021043C86001E00EE016E024
:101740002068016841F0010101602564202084F8CF
:101750003D00256384F83E50002070BD01EB41063A
:10176000431EB3FBF6F35B1CB3E70120C2E701EBBA
:101770004101401EB0FBF1F0401CC0F30B00B7E785
:10178000A086010080841E0000093D0040420F0039
:101790002DE9F84F1F4690468A460446DDF828900A
:1017A000FFF72CFF054694F83D0020287FD1192330
:1017B000012240492046009501F0C8F8002876D162
:1017C00094F83C00012872D0012084F83C00206885
:1017D0000168C90703D1016841F001010160206877
:1017E000016821F400610160212084F83D0010208F
:1017F00084F83E0000262664C4F824806785608D46
:1018000020852D48E0622B464A465146204600F08E
:1018100051FF90B9206841698069009036E02A46FE
:101820004946204601F070F950B1206C042804D1DB
:101830002068016841F4007101600120BDE8F88F63
:10184000606A216800780861606A401C6062618D8E
:10185000491E6185218D491E89B2218522685369FF
:10186000DB435B070BD451B100781061606A401C08
:101870006062608D401E6085208D401E20852A4656
:101880004946204601F036F80028CED1208D0028A8
:10189000C5D154F83D0B016841F40071016020206E
:1018A00004F81E09E67766770020C7E7FFE7022005
:1018B000C4E70000020010000000FFFF2DE9FF4F09
:1018C00083B00025DDE910799A4693460446DDF899
:1018D00048800095FFF792FE064694F83D002028C8
:1018E0007CD11923012285492046009601F02EF86B
:1018F0000028F5D194F83C0001286FD0012084F82D
:101900003C0020680168C90703D1016841F001016A
:1019100001602068016821F400610160222084F8E0
:101920003D00402084F83E0025646762A4F82A90B8
:10193000608D20857248E062CDE9008653465A46A4
:101940002046049900F004FF00287DD1208DDFF8A7
:10195000B491202768B1012814D0022820680168BA
:101960001ED041F480610160206841698069009067
:10197000B6E02068416981690091016841F4007115
:101980000160ADE02068016821F48061016072B6F9
:101990002068416981690091016841F400710AE0A1
:1019A00041F40061016072B620684169816900916B
:1019B000016821F48061016062B691E0032868D873
:1019C00001280CD0022843464FF000024946204629
:1019D00000960FD000F0BAFFB0BB10E08BE03246AB
:1019E0004146204601F058F870BB20680069616AE2
:1019F00008706CE000F0AAFF30BB72B634E02068DB
:101A0000016821F48061016072B620680069616A32
:101A10000870606A401C6062208D401E2085608DC9
:101A2000401E6085384846F2A8110068B0FBF1F00E
:101A3000C0EBC00000EB80000090401E009008D07A
:101A400020684069C04300E029E040070CD50098B9
:101A5000F3E744F8305F6773A573206940F0200016
:101A6000206162B625731AE02068016841F40071B4
:101A7000016020680069616A0870606A401C6062E9
:101A8000218D491E2185618D491E618562B62168BF
:101A90001BE032464146204600F0FEFF18B101200F
:101AA00007B0BDE8F08F20680069616A0870606A5D
:101AB000401C6062218D491E2185618D491E618512
:101AC00021684A69D24352070AD409690170606AE1
:101AD000401C6062208D401E2085608D401E608508
:101AE000208D00287FF46AAF84F83D7084F83E5062
:101AF00084F83C50D4E70220D2E700000200100036
:101B00000000FFFF04000100280000202DE9FF4F26
:101B100083B09A46DDE9119793460446DDF840808C
:101B2000FFF76CFD054694F83D0020287FD119236E
:101B3000012240492046009500F008FF002876D198
:101B400094F83C00012872D0012084F83C00206801
:101B50000168C90703D1016841F0010101602068F3
:101B6000016821F400610160212084F83D004020DB
:101B700084F83E0000262664C4F82480A4F82A9045
:101B8000608D20852C48E062CDE9007553465A46A9
:101B90002046049900F05AFE70B930E02A463946D2
:101BA000204600F0B1FF58B1206C042804D1206811
:101BB000016841F400710160012007B0BDE8F08FB9
:101BC000606A216800780861606A401C6062218D4B
:101BD000491E89B22185628D521E62852268536931
:101BE000DB435B070BD469B100781061606A401C6D
:101BF0006062208D401E2085608D401E6085208D96
:101C00000028CBD12A463946204600F073FE002832
:101C1000CAD154F83D0B016841F4007101602020E5
:101C200004F81E09E67766770020C6E7FFE7022082
:101C3000C3E70000020010000000FFFF10B586B0EF
:101C40000021009101910291039100680F4988429F
:101C50001AD10F4CA06940F00800A061A069694644
:101C600000F008000490C020009012200190032092
:101C700003900848FFF7C4FBE06940F40010E061FE
:101C8000E06900F40010049006B010BD005400405C
:101C900000100240000C01400248816802781144A3
:101CA000816070471C000020074810B5016841F0B2
:101CB00010010160032000F075F80F2000F006F815
:101CC00000F024F8002010BD0020024070B50D4D3A
:101CD00004464FF47A712878B1FBF0F00A4909689C
:101CE000B1FBF0F000F0CCFA48B9102C07D200227A
:101CF0002146501E00F036F800206C6070BD0120B7
:101D000070BD00001C000020280000200C4808B511
:101D1000816941F001018161816901F00101009156
:101D2000C16941F08051C161C06900F080500090EC
:101D30000448416821F0E06141F00071416008BD54
:101D40000010024000000140002809DB00F01F02E3
:101D5000012191404009800000F1E020C0F800110D
:101D600070470000F0B40E4B1B680C46C3F302230F
:101D7000C3F10705042D00D90425191D072901D237
:101D8000002300E0DB1E012606FA05F1491E214072
:101D900099409E40761E16403143F0BC01F03CB89D
:101DA0000CED00E0064900F0070208684FF6FF035B
:101DB000184040EA0220034A1043086070470000C0
:101DC0000CED00E00000FA052DE9F0470F46050094
:101DD00061D0434E306800F00700B84209D2306845
:101DE00020F0070038433060306800F00700B84248
:101DF00051D128683B4C810712D5400703D5606854
:101E000040F4E06060602878000703D5606840F423
:101E1000605060606068A96820F0F000084360606E
:101E20002878C00728D06868012810D021680228C7
:101E300010D0890700292EDA616821F003010143DF
:101E40006160FFF7DBFB804641F288390DE02168D5
:101E50008903EFE78901EDE7FFF7D0FBA0EB08016D
:101E6000494502D90320BDE8F0876068696800F041
:101E70000C00B0EB810FEFD1306800F00700B842E2
:101E80000BD9306820F0070038433060306800F02C
:101E90000700B84201D00120E5E72878400705D5C2
:101EA0006068E96820F4E060084360602878000713
:101EB00006D56068296920F4605040EAC10060607E
:101EC00000F028F86168084AC1F30311515CC8406A
:101ED0000649086006480068FFF7F8FE0020C2E7E0
:101EE0000020024000100240B43E000828000020FC
:101EF000200000200448054900684968044AC1F3ED
:101F00000221515CC84070472800002000100240A8
:101F1000C43E00080E4A51680E4801F00C03042B21
:101F200011D0082B0FD10C48C1F38343C903C05C07
:101F30000AD55168084AC1F34041921E515C054AD6
:101F40005043B0FBF1F0704704494843704700002C
:101F50000010024000127A00A43E000800093D0073
:101F60002DE9F84F040070D02078C04DC00749D04B
:101F70006868C0F38100012807D06868C0F3810059
:101F8000022809D16868C00306D52868800339D5BE
:101F900060680028E7D035E06068B0F5803F0BD07E
:101FA00010B1B0F5A02F11D0286820F4803028603F
:101FB000286820F4802002E0286840F480302860FF
:101FC000606890B1FFF71AFB06460AE0286840F403
:101FD00080202860F0E700BFFFF710FB801B64281B
:101FE00073D828688003F7D50CE0FFF707FB064697
:101FF00005E000BFFFF702FB801B6428F0D82868CB
:102000008003F7D420789A4E80074FF001094FF0F3
:10201000000839D5686810F00C0F07D06868C0F365
:102020008100022809D16868C00306D428688007A7
:1020300014D52069012808D110E02069B0B1C6F894
:102040000090FFF7DBFA074605E00AE1FFF7D6FA52
:10205000C01B0228C4D828688007F7D528686169A2
:1020600020F0F80040EAC10028600DE0C6F80080CA
:10207000FFF7C4FA074604E0FFF7C0FAC01B0228C6
:1020800023D828688007F7D4207800072CD5794812
:10209000A169D9B1C0F80090FFF7B0FA074604E093
:1020A000FFF7ACFAC01B02280FD8686A8007F7D583
:1020B00071484FF4FA510068B0FBF1F0009000BF96
:1020C0000098411E0091FAD20EE080E0C0F8008036
:1020D000FFF794FA074604E0FFF790FAC01B0228C6
:1020E00075D8686A8007F7D42078400760D5E8691A
:1020F0000027C00008D4E86940F08050E861E86932
:10210000012700F0805000905C480168C90513D495
:102110000168834641F480710160FFF76FFA8246DF
:1021200006E000BFFFF76AFAA0EB0A0064284ED869
:10213000DBF80000C005F5D5E06801280AD008B139
:10214000052813D0286A20F001002862286A20F0B0
:10215000040002E0286A40F001002862E06841F2D1
:10216000883B98B1FFF74AFA82460BE0286A40F0B4
:1021700004002862EEE700BFFFF740FAA0EB0A0177
:1021800059455AD8286A8007F6D50CE0FFF736FA89
:10219000824605E0FFF732FAA0EB0A0159454CD818
:1021A000286A8007F6D41FB1E86920F08050E86102
:1021B000E06988B36968C1F38101022944D002282B
:1021C000C6F8608004D0FFF719FA044638E034E01E
:1021D000FFF714FA074604E0FFF710FAC01B0228C5
:1021E0002BD828688001F7D4206AB0F5803F05D14C
:1021F0006868A16820F4003008436860D4E90801E9
:102200000843696821F4741108436860C6F8609057
:10221000FFF7F4F9044606E025E000BFFFF7EEF90A
:10222000001B022809D828688001F7D51BE000BFF1
:10223000FFF7E4F9001B022802D90320BDE8F88F5C
:1022400028688001F4D40EE00128F7D06868226A7B
:1022500000F48031914204D1616A00F47010884228
:1022600001D00120EAE70020E8E70000001002406A
:1022700000004242800442422800002000700040DA
:1022800010B5401EB0F1807F01D3012010BD4FF08A
:10229000E02460610F21601700F0BEFD0020A06106
:1022A00007202061002010BD7047704770B590F87E
:1022B0003C20012A26D0012480F83C40022280F8EC
:1022C0003D2003685A689D6822F070060A68324310
:1022D0005A600D4B02689A4208D0B2F1804F05D087
:1022E0000A4B9A4202D00A4B9A4204D1496825F01F
:1022F00080031943916080F83D40002180F83C1034
:10230000084670BD022070BD002C01400004004052
:102310000008004010B5040003D094F83D0010B14F
:1023200007E0012010BD002084F83C00204600F0AA
:102330001FF8022084F83D00211D206800F0ECFC0D
:10234000012084F8460084F83E0084F83F0084F8B9
:10235000400084F8410084F8420084F8430084F887
:10236000440084F8450084F83D00002010BD0000C2
:1023700008B500680B49884212D10B48816941F4C5
:10238000006181618069002200F4006000901146C4
:102390001920FFF7E7FCBDE808401920FFF7D4BC7F
:1023A00008BD0000002C01400010024090F83D10D4
:1023B000012901D001207047022180F83D100168F9
:1023C000CA6842F00102CA6000680B49884208D01E
:1023D000B0F1804F05D00949884202D008498842AF
:1023E00004D1816801F00701062903D0016841F09A
:1023F0000101016000207047002C014000040040F2
:102400000008004070B5044690F83C000025012803
:1024100017D0012684F83C60022084F83D00206833
:10242000826822F0770222F47F4282600868502896
:1024300038D00DDC20284FD005DC90B3102811D106
:102440004AE0022070BD302846D040280AD13BE047
:1024500060282FD070280DD0B0F5805F03D0B0F584
:10246000005F12D0012584F83D60002084F83C0014
:10247000284670BDCB68D1E90121206800F082FCBC
:102480002068816841F0770109E0CB68D1E901213A
:10249000206800F077FC2068816841F48041816009
:1024A000E1E719E0CA684968206800F07DFC502126
:1024B000206806E0CA684968206800F086FC602150
:1024C000206800F069FCCEE7CA684968206800F01F
:1024D0006BFC40212068F4E7226801461046F0E7D3
:1024E000704770B50446006801694FF00005C943A4
:1024F000890715D4C168C943890711D4E91E016150
:1025000001202077206880698007204602D0FFF7ED
:10251000E7FF04E000F098F8204600F096F82577F1
:1025200020680169C943490717D4C168C9434907ED
:1025300013D46FF0040101610220207720688069C4
:1025400010F4407F204602D0FFF7CAFF04E000F0FD
:102550007BF8204600F079F8257720680169C943A7
:10256000090716D4C168C943090712D46FF00801DE
:102570000161042020772068C0698007204602D0CE
:10258000FFF7AEFF04E000F05FF8204600F05DF8D2
:10259000257720680169C943C90617D4C168C943B2
:1025A000C90613D46FF0100101610820207720685C
:1025B000C06910F4407F204602D0FFF791FF04E08D
:1025C00000F042F8204600F040F8257720680169C5
:1025D000C943C90708D1C168C943C90704D1891EC5
:1025E0000161204600F032F820680169C9430906FC
:1025F00009D4C168C943090605D46FF0800101619F
:102600002046FFF751FE20680169C943490609D4F5
:10261000C168C943490605D46FF0400101612046F5
:1026200000F02EF820680169C94389060BD4C168FF
:10263000C943890607D46FF0200101612046BDE837
:102640007040FFF732BE70BD704770470B49094BB1
:102650000268094809789A4200D139B19A4208D1F2
:10266000012906D100221021FEF7C2BF1021FEF77A
:10267000B7BF7047002C0140000801400000002057
:102680007047FEE701684A69D24352050FD46FF4E0
:1026900080624A61002140F8301F2022427381731A
:1026A000026942F0040202610173012070470020B8
:1026B00070470000F8B50446C06A1E460D4617462E
:1026C000082807D0012805D010F5803F02D0206BE4
:1026D000122804D12068016841F48071016013461A
:1026E00000224FF001112046009600F02FF940B172
:1026F00020680068C00502D54FF4007020640320F4
:10270000F8BD2069B0F5804F0ED00620216800EAA0
:10271000D51040F0F000086133463A460B49204698
:1027200000F05CF978B902E005F0FE0000E0E8B2E4
:1027300021680861054933463A46891F204600F062
:102740004DF90028DCD00120F8BD00000800010090
:102750002DE9F84F0446006889460B9D01689846AC
:10276000174641F4806101602068016841F480717E
:10277000016000954FF0011B0022594620460A9B3C
:1027800000F0E4F84FF4007A40B120680068C0051A
:1027900001D5C4F840A00320BDE8F88F216809F0F6
:1027A000FE0008612B46284920460A9A00F016F9D7
:1027B000F0BB20684169806900902A4620460A994A
:1027C00000F0A2F940B1206C04283AD120680168D9
:1027D00041F40071016034E0FEB2B8F1010F09D09C
:1027E0002168380A08612A4620460A9900F08CF9C7
:1027F0000028E8D1206806612A4620460A9900F0A0
:1028000083F90028DFD12068016841F480710160FC
:1028100000950022594620460A9B00F097F80028B0
:10282000B3D1216809F0FF0040F00100086100E029
:1028300007E02B46044920460A9A00F0CFF800280A
:10284000AAD00120A8E70000020001002DE9F8430A
:10285000044600680D46DDE908970168984616466B
:1028600041F4807101604B4600224FF00111204677
:10287000009700F06BF848B120680068C00502D5E9
:102880004FF4007020640320BDE8F883216805F050
:10289000FE0008613B464A461549204600F09EF876
:1028A00088B920684169806900903A4649462046C7
:1028B00000F02AF948B1206C042804D1206801688E
:1028C00041F4007101600120DEE7F5B2B8F1010FBB
:1028D00009D02168300A08613A464946204600F08E
:1028E00013F90028E7D1206805610020CCE700003B
:1028F0000200010070B516460D4604461EE0204653
:10290000FFF7C0FE08B1012070BD681C16D0FEF7AD
:1029100075FE801BA84200D885B920684069C04375
:1029200040070BD5002044F8300F20216173A073BD
:10293000216941F0200121612073E4E720684069AA
:10294000C0434007DBD4002070BD00002DE9F047F4
:10295000984617460D460446C1F30746DDF8209019
:102960002AE000BFB8F1FF3F26D0FEF747FEA0EBFC
:102970000901414502D8B8F1000F1DD12068012E90
:1029800016D0806925EA00000004000C12D0002057
:10299000B84211D1002044F8300F20216173A07398
:1029A000216941F02001216120730120BDE8F087F9
:1029B0004069E7E70120EBE72068012E0AD0806933
:1029C00025EA00000004000C06D00020B842C9D05F
:1029D0000020EBE74069F3E70120F7E72DE9F04736
:1029E000984616460D4604464FF000094FF0200A5F
:1029F000C1F3074723E020684069C043400515D470
:102A00002068016841F40071016021686FF4806002
:102A10004861C4F8309084F83DA084F83E90216C61
:102A200041F00401216484F83C9021E0701C06D040
:102A3000FEF7E4FDA0EB0800B04203D816B1012F69
:102A40001FD021E02068012F15D0806925EA000001
:102A50000004000C18D000BF44F8309F84F80DA08B
:102A600084F80E90216941F02001216184F80C90D6
:102A70000120BDE8F087406925EA00000004000C51
:102A8000EAD12068406901E02068806925EA0000F9
:102A90000004000CAFD1ECE72DE9F0410025904691
:102AA0000E460446202728E04069C043C0060CD4E7
:102AB00054F8301B6FF01000486144F810596777E4
:102AC000A577206A2062257714E0FEF797FDA0EB3A
:102AD0000800B04200D886B920684069C04340066B
:102AE0000BD544F8305F6773A573206940F0200070
:102AF000206125730120BDE8F08120684169C94348
:102B00004906D1D40020F6E770B516460D460446B6
:102B10001EE02046FFF7B6FD08B1012070BD681C1D
:102B200016D0FEF76BFD801BA84200D885B920683F
:102B30004069C04300060BD5002044F8300F202127
:102B40006173A073216941F0200121612073E4E7E2
:102B500020684069C0430006DBD4002070BD00003F
:102B60002DE9F04186B0002431480094019402948C
:102B70000394816941F010018161816901F01001C4
:102B80000491816941F020018161816901F0200196
:102B90000491816941F004018161816901F00401BE
:102BA0000491816941F0080181618069214F00F041
:102BB00008004FF400550490002229463846FEF7DD
:102BC00017FDDFF87480002218214046FEF710FD43
:102BD0000126CDE90056022569463846CDE9024571
:102BE000FEF70EFC062000901448CDE90105694669
:102BF0004046FEF705FC1820CDE900066946404630
:102C0000CDE90245FEF7FCFB002201210720FFF77A
:102C1000A9F80720FFF798F8002202210820FFF703
:102C2000A1F80820FFF790F806B0BDE8F081000099
:102C30000010024000100140000801400000111087
:102C400010B586B0002417480094019402940394B0
:102C5000049413490594016041F63F71C0E90114E1
:102C60000911C0E9031444618461FFF753FB08B103
:102C700072B6FEE74FF48050009069460948FFF7AE
:102C8000C1FB08B172B6FEE7049404A90548059497
:102C9000FFF70CFB002801D072B6FEE706B010BDAE
:102CA000002C014080000020FEE7FEE770477047DF
:102CB000FEF7F2BF30B58FB028216846FDF76BFBF9
:102CC00014210AA8FDF767FB012002250490009556
:102CD000102005900024CDE9075468460994FFF7B9
:102CE0003FF908B172B6FEE70F200A90CDE90B5408
:102CF0000D9400210AA80E94FFF766F8002801D071
:102D000072B6FEE70FB030BD704700000148FFF714
:102D1000E8BB000080000020F0B50268164B174C9D
:102D2000174D4FF08047984205D0B84203D0A042DB
:102D300001D0A84203D122F070064A68324398427B
:102D400005D0B84203D0A04201D0A84203D122F45A
:102D50004074CA6822434C6922F080022243026018
:102D60008A68C2620A688262984201D10969016375
:102D700001214161F0BD0000002C01400004004031
:102D80000008004010B5846842EA032224F47F441E
:102D90000A432243826010BD826822F070020A4317
:102DA00042F007018160704710B5036A046A24F09D
:102DB00001040462846924F0F00444EA021423F05C
:102DC0000A020A438461026210BD10B5036A046AF4
:102DD00024F010040462846923F0A00324F47044F6
:102DE00044EA023243EA01118261016210BDFEE74A
:102DF000490050EAC12018BF04204A0D18BF40F016
:102E0000010040F2FF72B2EB515F08BF40F00200D8
:102E1000012808BF052070470907090E002804DBB8
:102E200000F1E02080F80014704700F00F0000F17E
:102E3000E02080F8141D704730380A2801D20120A4
:102E4000704700207047000010B54FF4FA60FEF79D
:102E5000A7FA00F01BF8044C04F10C0007C800F0BE
:102E600055F8A06110BD00000000002070B50C46B0
:102E7000054600F0EBFE2146284603D8BDE8704029
:102E800000F020BFBDE8704000F011BFF0B585B084
:102E90006422062103A88DE8070001233B22D021EC
:102EA0001848FEF70BFDBDF80C00174C40BA00B2F5
:102EB000A080BDF80E1049BA0EB2E680BDF8101021
:102EC00049BA0DB2258100F0D5FB6FF00D073A46E7
:102ED00000F0A1FF00F094FBE060304600F0CAFB78
:102EE0003A4600F098FF00F08BFB2061284600F086
:102EF000C1FB3A4600F08FFF00F082FB606105B035
:102F0000F0BD00002C0000200000002070B50C4631
:102F100006461146084600F0CDFD05462146084606
:102F200000F0C8FD04463146084600F0C3FD2146C6
:102F300000F01EFD294600F01BFD00F0EDFC00F046
:102F400023FBBDE8704000F05BBB0000F0B585B02E
:102F5000012504A8CDE900054FF47A742B467522AB
:102F6000D02102941C48FEF7A9FC9DF810006828A7
:102F70002FD1002703AE8DF80C700096CDE90154D7
:102F800001236B22D0211448FEF7C0FD07208DF8E5
:102F90000C000096CDE9015401231922D0210E48DE
:102FA000FEF7B4FD8DF80C700096CDE901540123B5
:102FB0001B22D0210848FEF7A9FD8DF80C70009661
:102FC000CDE9015401231C22D0210348FEF79EFDC8
:102FD000202005B0F0BD00002C00002010B580209E
:102FE00000F044F80024202000F060F8641C502C0D
:102FF000F9DB10BD10B53220FEF7D2F9302000F019
:1030000035F80520FEF7CCF9302000F02FF801202C
:10301000FEF7C6F9302000F029F80A20FEF7C0F9C3
:10302000202000F023F80A20FEF7BAF9282000F04B
:103030001DF80120FEF7B4F9082000F017F8012070
:10304000FEF7AEF9012000F011F80120FEF7A8F913
:103050000120FEF7A5F9062000F008F80120FEF790
:103060009FF9BDE810400C20AFF300801CB500F0C4
:10307000F00141F00C028DF8042041F0080100013C
:103080008DF8051040F00C018DF8061040F0080096
:103090008DF8070064200090042301AA4E21024805
:1030A000FEF776FB1CBD00002C0000201CB500F0D4
:1030B000F00141F00D028DF8042041F009010001FA
:1030C0008DF8051040F00D018DF8061040F0090054
:1030D0008DF8070064200090042301AA4E210248C5
:1030E000FEF756FB1CBD00002C00002010B5044666
:1030F00002E0641CFFF7DAFF20780028F9D110BD48
:103100000EB5FEF7D1FDFFF7D5FDFFF729FDBA4853
:10311000B8494FF000080160B849C0E901184FF400
:103120008042C0E90382C0F81480C0F81880C0F85B
:103130001C80C0F82080FEF767FA08B172B6FEE77F
:10314000FFF77EFDFFF756FFFFF748FF8020FFF7F0
:103150008DFFABA0FFF7CAFFC020FFF787FFAEA02F
:10316000FFF7C4FF9420FFF781FFB0A0FFF7BEFF79
:103170004FF47A70FEF714F9FFF730FF05E000BF57
:10318000FFF774FFAFA0FFF7B1FFFFF7DFFE2028C6
:103190004FF08000F4D1FFF769FFB0A0FFF7A6FF62
:1031A000C020FFF763FFB2A0FFF7A0FF9420FFF756
:1031B0005DFFB2A0FFF79AFFFFF746FEFFF70EFF95
:1031C000B4480290B448022600270190FFF706FF9A
:1031D0004FF0000988484D46CA465430FFF7E6F8DC
:1031E000DFF8B8B25C469BF80100012829D1FFF74F
:1031F000F5FE84F80180C020FFF738FFA8A0FFF794
:1032000075FFC820FEF7CCF84FF000090120A07030
:103210004D46CA4602264F469420FFF727FFA4A03A
:10322000FFF764FFFFF710FEFFF7D8FEC020FFF79F
:103230001DFFA4A0FFF75AFFC820FEF7B1F8FFF763
:10324000CDFE2078002839D001220821A348FEF7BE
:10325000CFF9D420FFF70AFFA1A0FFF747FF20789E
:1032600000284FF0C0007DD0FFF700FFA2A0FFF7BD
:103270003DFF6420FEF794F86420FEF791F8642087
:10328000FEF78EF86420FEF78BF86420FEF788F8CE
:10329000C020FFF7EBFE9EA0FFF728FF6420FEF79B
:1032A0007FF86420FEF77CF86420FEF779F864204C
:1032B000FEF776F86420FEF773F8D0E7FFF7E6FD37
:1032C00004F10C00A34607C8FFF720FEA16900F037
:1032D000F9FC04462946FFF7C9FD029900F0B6FB48
:1032E00006D29BF8021001297FF47CAF8BF8028094
:1032F0002946204600F0AAFC06D21EB9884885421D
:1033000000D30127012614E02946204600F09EFB49
:103310000FD2012E0CD12846019900F097FC07D25C
:10332000012F05D109F1010000F0FF09AA4600278D
:1033300000268020FFF79AFE7AA0FFF7D7FE2E48DE
:103340009C30FFF7D3FE504600F0E6FA05462A48C7
:103350000B4600912A4679A19C30FCF745FF264890
:103360009C3000E03BE0FFF7C1FEC020FFF77EFE8F
:1033700074A0FFF7BBFE204600F0CEFA02461E48BE
:103380000B4674A19C30FCF72FFF1B489C30FFF7C5
:10339000ADFE9420FFF76AFE70A0FFF7A7FE164867
:1033A0004A4671A19C30FCF71FFF13489C30FFF781
:1033B0009DFE11482A4661A19C30009BFCF714FF3A
:1033C0000D489C30FFF792FED420FFF74FFE68A017
:1033D000FFF78CFE25466420FDF7E2FF02E7FFF7CA
:1033E00045FE45A0FFF782FE002208213B48FEF77C
:1033F000FFF8F7E6005400402C000020A0860100F2
:10340000454C54333234302D32456F532070726F37
:103410006A656374000000002044722E204E6775B8
:1034200079656E204B2E2048756E67003230303241
:1034300030333230202020203230303230313733B8
:10344000000000004177616974696E6720636F6EE8
:103450006E656374696F6E7E000000002053656EB8
:10346000736F7220636F6E6E656374656421000014
:10347000486F6C64207374696C6C000020202020FD
:1034800020666F722063616C6962726174696F6E2D
:10349000000000008FC2F53C9A99993E0000002080
:1034A000202020526573657474696E672E2E2E007D
:1034B0002020526563616C6962726174696E672E67
:1034C0002E2E0000202020526573657420737563D2
:1034D0006365737366756C2100000000000801408D
:1034E00020202053573120746F20756E70617573E2
:1034F0006520202000000000202020202020202007
:10350000202020202020202020202020000000003B
:103510002020202020205061757365642100000068
:103520008FC2F5BC5065646F6D65746572206279F9
:103530002047724E6F2E323300000000252E326677
:10354000202000002043757272656E744D61672003
:103550003D200000252E32660000000020537465D7
:103560007073203D20000000256420202000000012
:103570005357312070617573657C7C5357322072CC
:1035800065736574000000002DE9F04106460F46A2
:1035900000F0DCF8041E0D4618BF0120284320F07F
:1035A0000040C0F17F6000F1E040C00F0ED0301C41
:1035B00018BF0120384320F00040C0F17F6000F1C7
:1035C000E040C00F04BF0120FCF714FF204629464D
:1035D000BDE8F08110B500290AD00878002807D08E
:1035E00005487844FDF7C4FA002801D0002010BD3A
:1035F0000248784410BD00009E09000096090000B2
:1036000021F00042A2F16052B2F5801F01F00043A8
:1036100028BFD2F17F6C0BD95FEA001C43EAC202DB
:1036200042EB507018BF704728BF20F00100704770
:10363000B2F5801FBCBF184670474FEA410C1CF51D
:10364000001F02D2084600F0FCBA70B500F029F85D
:1036500000000089FFF7F6BF4FF00040A0F58000A2
:103660007047000002494FF0000000F0A2BB00BF0D
:103670000000F87F10F0004248BF4042B0FA80F3EB
:1036800010FA03F10AD0C3F11D0303F580634FEA7A
:10369000415002EB035202EBD12170474FF0000082
:1036A00070470EF1020E2EF0030E5EF8046B3642E8
:1036B00005D4012A43EB030515F5001F12D8012894
:1036C00041EB010C1CF5001F0CD80ED14FEAD17C48
:1036D00015F5001F0CEB4C0C0CF1020C08BF4CEB69
:1036E000D37C04E04FF0080C01E04FEAD37C0CEBF4
:1036F0004C0526FA05F606F00706B6F1040C06D2CC
:103700000EEB860CBDE870404CF0010C6047DFE822
:103710000CF0090B02024FF000414FF00000A1F540
:10372000002170BD19461046012851EB010418BF55
:10373000D4F5001484BF002001F0004170BD0808DA
:10374000A0F500114FEA3101704700002DE9F0416A
:1037500001F5801CBCF5001FC0F2C3804FEA115C6C
:1037600021EA0C510CF1FD0C41F480115FEA5C0C74
:103770000CF5C07C01D3400049413DA4890241EAD7
:10378000905187028E0E0A0CA45D04FB04F602FB26
:1037900006F6C6F14046A4FB0662F60D46EA42264E
:1037A00006FB06F4A4FB01235242C3F1404338BF99
:1037B0005B1EA6FB02420024E6FB0324D20B42EA76
:1037C0004446A6FB0623A1FB02E2A3FB07E4A418E0
:1037D0004FF0000252F10002E3FB01426442C2F1E9
:1037E000404E38BFAEF1010EA6FB04234FF000029D
:1037F000E6FB0E32A2FB03464FF00004B61954F16B
:103800000004E2FB0264A1FB06E6A4FB07E816EB5A
:1038100008064FF0000858F10008E4FB0168764202
:10382000C8F1405838BFA8F10108A2FB06E4A3FB89
:1038300008E52D194FF0000454F10004E2FB085490
:10384000A1FB05E6A7FB04E818EB06084FF000060D
:1038500056F10006E1FB048618F1200556F100063A
:10386000A809A8F11B08B10908F03F08B8F10A0F30
:1038700040EA86601CD901EB0C51BDE8F08100BF25
:10388000FCF5EEE8E2DDD8D3CFCBC7C3C0BDB9B6F7
:10389000B4B1AEACA9A7A5A3A19F9D9B9A989695FC
:1038A0009392908F8D8C8B89888786858483828183
:1038B000A0FB006800FB01F208EB4208B8EB872888
:1038C00007D5341858EB0104D5D5401C51F100013F
:1038D000D1E7341A78EB0104CDD4401E71F1000118
:1038E000C9E75FEA4C0C5FEA9C5C0DD105D34FF051
:1038F000000001F00041BDE8F081BDE8F04170B585
:10390000FFF7CFFE6DDBFFBEBDE8F0414FF00000DA
:10391000004970470000F87F43004FEAD30C4FEA9C
:103920003C0C43401FBF40070CF1605113F0FE4FA9
:1039300070471CF0006F03D100200CF0004170476D
:103940000CF0004343EA507010B540EACC0000F0A0
:1039500032F900BF000000924FEA0001FFF7EFBE0E
:103960004FF000414FF00000A1F50021704700002A
:1039700090EA010F48BF81F0004100F1AA81421A8C
:103980003CBF801A89184FEAD0524FF07F4C1CEA96
:10399000410FA2EBD15318BF9CEA026F00F03B80AD
:1039A0004FF0004C4CEA00204CEA012121FA03FCC4
:1039B00010EB0C0C1ED202F1FF325FEA1C2040EB30
:1039C000C25038BF70471CF07F0F4FEA400C18BF41
:1039D000BCF17F4F38BF7047C3F12003994008BF47
:1039E00020F00100BCF17F4F38BF7047A0F1C0400C
:1039F00000F027B94FEA3C00000A40EBC25028BF54
:103A00001CF0FF0F4FEA400CE6D018BFBCF17F4F0F
:103A100038BF7047EAE79CEA026F05D010EA5C0FF6
:103A200008BF00F00040704710B500F0C4F800BFB8
:103A300064FBBE3E401058BFC0F14040491058BF23
:103A4000C1F140418142EFF30080704750EA010C20
:103A500000F113801CF5000F58BFBCF5000F01D416
:103A60008842704707D710F5000F58BF11F5000FB7
:103A700015D488427047894270471CF5000F04D561
:103A8000BCF5000FF7D5814270474FF0807C1CEBEE
:103A9000400F38BF1CEB410F01D28142704710B577
:103AA00000F089F8922449004FF000504FF0805107
:103AB000FFF7C0BF4FF47F0C1CEAD0121EBF1CEAF8
:103AC000D11392EA0C0F93EA0C0F00F0478090EAB2
:103AD000010F48BF42F480724FF0004C4CEA0020C6
:103AE0004CEA012102EB0302A0FB0113A2F5000244
:103AF000002918BF43F001035B0028BF4FEA3303DE
:103B000042EB22425FEA132C4CEBC2502EBFBCEBBF
:103B1000436FB2F57C0F70474FEA036CBCF1004F66
:103B200008BF20F00100B2F57C0F38BF70470BD5FD
:103B300082F0FF0212F5803FC8BF704700F1C0401D
:103B4000D8BF00F00040704700F5000C5FEA4C0C55
:103B500048BF7047B0F1C04000F073B890EA010F61
:103B60000CEAD11348BF42F48072624538BF634506
:103B700004D280EA010000F00040704710B500F068
:103B80001AF800BF8900013E00F007B800F009B83C
:103B90005FEA410C5FEA1C6C08D080EA010000F08B
:103BA00050B85FEA400C5FEA1C6CF6D14FF0004061
:103BB000A0F5800070470EF1020E2EF0030E5EF8A5
:103BC000044B244204D44FEA4102B2F17F4F11D892
:103BD0004FEA4003B3F17F4F0CD80ED14FEAD07CAF
:103BE000B2F17F4F0CEB4C0C0CF1020C08BF4CEB0C
:103BF000D17C04E04FF0080C01E04FEAD17C0CEBE3
:103C00004C0324FA03F404F00704B4F1040C06D2C4
:103C10000EEB840CBDE810404CF0010C6047DFE86F
:103C20000CF0070802024FF00040A0F5800010BD24
:103C30000846420018BFD2F1807288BF00F00040F1
:103C400010BDFF2141EAD050C005704751EA000C79
:103C500000F113801CF5000F58BFBCF5000F01D414
:103C60008142704707D711F5000F58BF10F5000FBC
:103C700015D481427047894270471CF5000F04D566
:103C8000BCF5000FF7D5884270474FF0807C1CEBE5
:103C9000410F38BF1CEB400F01D28842704780EAC9
:103CA000010081EA000180EA0100FFF7F8BE80F020
:103CB000004090EA010F7FF562AE81F0004100F014
:103CC00008B8000090EA010F48BF81F000413FF5BD
:103CD00056AE421A04D882F00042A0EB0200114412
:103CE0004FEAD0524FF07F4C1CEA410FA2EBD15368
:103CF00018BF9CEA026F4AD04FF0004C4CEA0020FB
:103D00004CEA012121FA03FCB0EB0C0C0FD412F0A9
:103D1000FE0F36D05FEA4C001DD5001240EBC250BA
:103D200038BF70471CF03F0F18BF70470BE0A2F17F
:103D300001025FEA1C2040EBC25038BF70471CF004
:103D40007F0F18BF7047C3F12003994014BF401E76
:103D500020F00100704780084FEA122308BF704727
:103D6000B0FA80FCA2EB0C02CCF1280C60FA0CF04B
:103D700093EA122F04BF00EBC25070474FEAC370A2
:103D80007047130A5FEADC1008BF7047F6E79CEA49
:103D9000026F04D010EA5C0F08BF0020704710B516
:103DA000FFF709FF40DFF63E81F000407047FCF767
:103DB00059BC0CF00F03092B08BF082000F05980F4
:103DC0000A2B0BD0082B18BF704708BF1CF0400F00
:103DD0000AD04FF000004FF0000170471CF0400F78
:103DE00018BF4FF0004070471CF0100F08D020F0B3
:103DF000704300F07F4242EAD3014FEA43707047BC
:103E000000F0604021F07F4242EA000201F07F4072
:103E100040EA727070474FF0FF0C4CF4E06C1CEA03
:103E200011531CBF9CEA030C9445C2BFDA4201EB5C
:103E300002517047002B0DD0BCF1000F0FD0002AAB
:103E400001F00041A4BF41F0E04141F07F614FF03B
:103E50000000704701F000414FF00000704750EA49
:103E600001334FF09B0C18BF4CF0806C7FF4FAAB21
:103E700070471CF4801F11D01CF4E02F03D06FEAB0
:103E8000CC31490070474FF04050EFF3008222F0F0
:103E9000704242EA000282F3008870474FF000004F
:103EA0007047010202030405060708090A0B0C0DFE
:103EB0000E0F1010000000000000000001020304BB
:103EC0000607080900000000010203040240000088
:103ED000000000A00000000005400000000000C835
:103EE000000000000C4000000000409C00000000AA
:103EF000194000000020BCBE00000000344000005B
:103F0000BFC91B8E00000004B5400000504BCFD04D
:103F10006607E2CF010000006C4100003E8251AA1A
:103F2000DFEEA73401000000D9420000DCB5A0E2BA
:103F30003A301F97FFFFFFFFB4450000FD25A0C8E2
:103F4000E9A3C14FFFFFFFFFFF3F0000000000801B
:103F500000000000FF3F00000000008000000000A3
:103F60009C3F0008000000202C00000028010008F1
:103F7000C83F00082C00002064070000440100082E
:103F80001C00000043000000F8FFFFFF0C000000D1
:103F90000E0000000F0000002E00000000000100D5
:103FA0000000000000000000000000000000000011
:103FB00000000000000000000100000010000000F0
:083FC000000000000024F400E1
:04000005080000ED02
:00000001FF
